{
  "_format": "hh-sol-artifact-1",
  "contractName": "Voting",
  "sourceName": "contracts/Voting.sol",
  "abi": [
    {
      "inputs": [],
      "stateMutability": "nonpayable",
      "type": "constructor"
    },
    {
      "anonymous": false,
      "inputs": [
        {
          "indexed": false,
          "internalType": "address",
          "name": "newAdmin",
          "type": "address"
        }
      ],
      "name": "AdminAdded",
      "type": "event"
    },
    {
      "anonymous": false,
      "inputs": [
        {
          "indexed": false,
          "internalType": "uint256",
          "name": "proposalId",
          "type": "uint256"
        },
        {
          "indexed": false,
          "internalType": "string",
          "name": "question",
          "type": "string"
        }
      ],
      "name": "ProposalCreated",
      "type": "event"
    },
    {
      "anonymous": false,
      "inputs": [
        {
          "indexed": false,
          "internalType": "uint256",
          "name": "proposalId",
          "type": "uint256"
        },
        {
          "indexed": false,
          "internalType": "uint256",
          "name": "optionIndex",
          "type": "uint256"
        },
        {
          "indexed": false,
          "internalType": "address",
          "name": "voter",
          "type": "address"
        }
      ],
      "name": "Voted",
      "type": "event"
    },
    {
      "inputs": [
        {
          "internalType": "address",
          "name": "newAdmin",
          "type": "address"
        }
      ],
      "name": "addAdmin",
      "outputs": [],
      "stateMutability": "nonpayable",
      "type": "function"
    },
    {
      "inputs": [
        {
          "internalType": "string",
          "name": "_question",
          "type": "string"
        },
        {
          "internalType": "string[]",
          "name": "_options",
          "type": "string[]"
        }
      ],
      "name": "createProposal",
      "outputs": [],
      "stateMutability": "nonpayable",
      "type": "function"
    },
    {
      "inputs": [
        {
          "internalType": "uint256",
          "name": "_proposalId",
          "type": "uint256"
        }
      ],
      "name": "getProposal",
      "outputs": [
        {
          "internalType": "string",
          "name": "question",
          "type": "string"
        },
        {
          "internalType": "string[]",
          "name": "options",
          "type": "string[]"
        },
        {
          "internalType": "uint256[]",
          "name": "voteCounts",
          "type": "uint256[]"
        }
      ],
      "stateMutability": "view",
      "type": "function"
    },
    {
      "inputs": [],
      "name": "getProposalsCount",
      "outputs": [
        {
          "internalType": "uint256",
          "name": "",
          "type": "uint256"
        }
      ],
      "stateMutability": "view",
      "type": "function"
    },
    {
      "inputs": [
        {
          "internalType": "uint256",
          "name": "",
          "type": "uint256"
        },
        {
          "internalType": "address",
          "name": "",
          "type": "address"
        }
      ],
      "name": "hasVoted",
      "outputs": [
        {
          "internalType": "bool",
          "name": "",
          "type": "bool"
        }
      ],
      "stateMutability": "view",
      "type": "function"
    },
    {
      "inputs": [
        {
          "internalType": "uint256",
          "name": "_proposalId",
          "type": "uint256"
        },
        {
          "internalType": "address",
          "name": "_voter",
          "type": "address"
        }
      ],
      "name": "hasVotedOn",
      "outputs": [
        {
          "internalType": "bool",
          "name": "",
          "type": "bool"
        }
      ],
      "stateMutability": "view",
      "type": "function"
    },
    {
      "inputs": [
        {
          "internalType": "address",
          "name": "",
          "type": "address"
        }
      ],
      "name": "isAdmin",
      "outputs": [
        {
          "internalType": "bool",
          "name": "",
          "type": "bool"
        }
      ],
      "stateMutability": "view",
      "type": "function"
    },
    {
      "inputs": [
        {
          "internalType": "uint256",
          "name": "_proposalId",
          "type": "uint256"
        },
        {
          "internalType": "uint256",
          "name": "_optionIndex",
          "type": "uint256"
        }
      ],
      "name": "vote",
      "outputs": [],
      "stateMutability": "nonpayable",
      "type": "function"
    }
  ],
  "bytecode": "0x608060405234801561001057600080fd5b5060016000803373ffffffffffffffffffffffffffffffffffffffff1673ffffffffffffffffffffffffffffffffffffffff16815260200190815260200160002060006101000a81548160ff021916908315150217905550611b4b806100776000396000f3fe608060405234801561001057600080fd5b50600436106100885760003560e01c806398e527d31161005b57806398e527d314610125578063b384abef14610143578063b97d3e401461015f578063c7f758a81461018f57610088565b806324d7806c1461008d57806343859632146100bd5780636ca91202146100ed5780637048027514610109575b600080fd5b6100a760048036038101906100a29190610d09565b6101c1565b6040516100b49190610d51565b60405180910390f35b6100d760048036038101906100d29190610da2565b6101e1565b6040516100e49190610d51565b60405180910390f35b6101076004803603810190610102919061100e565b610210565b005b610123600480360381019061011e9190610d09565b610449565b005b61012d6105d4565b60405161013a9190611095565b60405180910390f35b61015d600480360381019061015891906110b0565b6105e1565b005b61017960048036038101906101749190610da2565b6108a1565b6040516101869190610d51565b60405180910390f35b6101a960048036038101906101a491906110f0565b610909565b6040516101b893929190611366565b60405180910390f35b60006020528060005260406000206000915054906101000a900460ff1681565b60026020528160005260406000206020528060005260406000206000915091509054906101000a900460ff1681565b6000803373ffffffffffffffffffffffffffffffffffffffff1673ffffffffffffffffffffffffffffffffffffffff16815260200190815260200160002060009054906101000a900460ff1661029b576040517f08c379a000000000000000000000000000000000000000000000000000000000815260040161029290611424565b60405180910390fd5b6002815110156102e0576040517f08c379a00000000000000000000000000000000000000000000000000000000081526004016102d790611490565b60405180910390fd5b6102e8610b46565b8281600001819052508181602001819052506001816060019015159081151581525050815167ffffffffffffffff81111561032657610325610dfd565b5b6040519080825280602002602001820160405280156103545781602001602082028036833780820191505090505b5081604001819052506001819080600181540180825580915050600190039060005260206000209060040201600090919091909150600082015181600001908161039e91906116bc565b5060208201518160010190805190602001906103bb929190610b70565b5060408201518160020190805190602001906103d8929190610bc9565b5060608201518160030160006101000a81548160ff02191690831515021790555050507f9c770c289ab5bf7e57cb1d23c8ceae993aea46eb64847072fd3d78ca60d3e4326001808054905061042d91906117bd565b8460405161043c9291906117f1565b60405180910390a1505050565b6000803373ffffffffffffffffffffffffffffffffffffffff1673ffffffffffffffffffffffffffffffffffffffff16815260200190815260200160002060009054906101000a900460ff166104d4576040517f08c379a00000000000000000000000000000000000000000000000000000000081526004016104cb90611424565b60405180910390fd5b600073ffffffffffffffffffffffffffffffffffffffff168173ffffffffffffffffffffffffffffffffffffffff1603610543576040517f08c379a000000000000000000000000000000000000000000000000000000000815260040161053a9061186d565b60405180910390fd5b60016000808373ffffffffffffffffffffffffffffffffffffffff1673ffffffffffffffffffffffffffffffffffffffff16815260200190815260200160002060006101000a81548160ff0219169083151502179055507f44d6d25963f097ad14f29f06854a01f575648a1ef82f30e562ccd3889717e339816040516105c9919061189c565b60405180910390a150565b6000600180549050905090565b6001805490508210610628576040517f08c379a000000000000000000000000000000000000000000000000000000000815260040161061f90611903565b60405180910390fd5b6001828154811061063c5761063b611923565b5b906000526020600020906004020160030160009054906101000a900460ff1661069a576040517f08c379a00000000000000000000000000000000000000000000000000000000081526004016106919061199e565b60405180910390fd5b6002600083815260200190815260200160002060003373ffffffffffffffffffffffffffffffffffffffff1673ffffffffffffffffffffffffffffffffffffffff16815260200190815260200160002060009054906101000a900460ff1615610738576040517f08c379a000000000000000000000000000000000000000000000000000000000815260040161072f90611a0a565b60405180910390fd5b6001828154811061074c5761074b611923565b5b90600052602060002090600402016001018054905081106107a2576040517f08c379a000000000000000000000000000000000000000000000000000000000815260040161079990611a76565b60405180910390fd5b600182815481106107b6576107b5611923565b5b906000526020600020906004020160020181815481106107d9576107d8611923565b5b9060005260206000200160008154809291906107f490611a96565b919050555060016002600084815260200190815260200160002060003373ffffffffffffffffffffffffffffffffffffffff1673ffffffffffffffffffffffffffffffffffffffff16815260200190815260200160002060006101000a81548160ff0219169083151502179055507fd91ecafccf238642dccd41161308b3eebe62a12bc5819daf5164780c221ec95b82823360405161089593929190611ade565b60405180910390a15050565b60006002600084815260200190815260200160002060008373ffffffffffffffffffffffffffffffffffffffff1673ffffffffffffffffffffffffffffffffffffffff16815260200190815260200160002060009054906101000a900460ff16905092915050565b60608060606001805490508410610955576040517f08c379a000000000000000000000000000000000000000000000000000000000815260040161094c90611903565b60405180910390fd5b60006001858154811061096b5761096a611923565b5b90600052602060002090600402019050806000018160010182600201828054610993906114df565b80601f01602080910402602001604051908101604052809291908181526020018280546109bf906114df565b8015610a0c5780601f106109e157610100808354040283529160200191610a0c565b820191906000526020600020905b8154815290600101906020018083116109ef57829003601f168201915b5050505050925081805480602002602001604051908101604052809291908181526020016000905b82821015610ae0578382906000526020600020018054610a53906114df565b80601f0160208091040260200160405190810160405280929190818152602001828054610a7f906114df565b8015610acc5780601f10610aa157610100808354040283529160200191610acc565b820191906000526020600020905b815481529060010190602001808311610aaf57829003601f168201915b505050505081526020019060010190610a34565b50505050915080805480602002602001604051908101604052809291908181526020018280548015610b3157602002820191906000526020600020905b815481526020019060010190808311610b1d575b50505050509050935093509350509193909250565b60405180608001604052806060815260200160608152602001606081526020016000151581525090565b828054828255906000526020600020908101928215610bb8579160200282015b82811115610bb7578251829081610ba791906116bc565b5091602001919060010190610b90565b5b509050610bc59190610c16565b5090565b828054828255906000526020600020908101928215610c05579160200282015b82811115610c04578251825591602001919060010190610be9565b5b509050610c129190610c3a565b5090565b5b80821115610c365760008181610c2d9190610c57565b50600101610c17565b5090565b5b80821115610c53576000816000905550600101610c3b565b5090565b508054610c63906114df565b6000825580601f10610c755750610c94565b601f016020900490600052602060002090810190610c939190610c3a565b5b50565b6000604051905090565b600080fd5b600080fd5b600073ffffffffffffffffffffffffffffffffffffffff82169050919050565b6000610cd682610cab565b9050919050565b610ce681610ccb565b8114610cf157600080fd5b50565b600081359050610d0381610cdd565b92915050565b600060208284031215610d1f57610d1e610ca1565b5b6000610d2d84828501610cf4565b91505092915050565b60008115159050919050565b610d4b81610d36565b82525050565b6000602082019050610d666000830184610d42565b92915050565b6000819050919050565b610d7f81610d6c565b8114610d8a57600080fd5b50565b600081359050610d9c81610d76565b92915050565b60008060408385031215610db957610db8610ca1565b5b6000610dc785828601610d8d565b9250506020610dd885828601610cf4565b9150509250929050565b600080fd5b600080fd5b6000601f19601f8301169050919050565b7f4e487b7100000000000000000000000000000000000000000000000000000000600052604160045260246000fd5b610e3582610dec565b810181811067ffffffffffffffff82111715610e5457610e53610dfd565b5b80604052505050565b6000610e67610c97565b9050610e738282610e2c565b919050565b600067ffffffffffffffff821115610e9357610e92610dfd565b5b610e9c82610dec565b9050602081019050919050565b82818337600083830152505050565b6000610ecb610ec684610e78565b610e5d565b905082815260208101848484011115610ee757610ee6610de7565b5b610ef2848285610ea9565b509392505050565b600082601f830112610f0f57610f0e610de2565b5b8135610f1f848260208601610eb8565b91505092915050565b600067ffffffffffffffff821115610f4357610f42610dfd565b5b602082029050602081019050919050565b600080fd5b6000610f6c610f6784610f28565b610e5d565b90508083825260208201905060208402830185811115610f8f57610f8e610f54565b5b835b81811015610fd657803567ffffffffffffffff811115610fb457610fb3610de2565b5b808601610fc18982610efa565b85526020850194505050602081019050610f91565b5050509392505050565b600082601f830112610ff557610ff4610de2565b5b8135611005848260208601610f59565b91505092915050565b6000806040838503121561102557611024610ca1565b5b600083013567ffffffffffffffff81111561104357611042610ca6565b5b61104f85828601610efa565b925050602083013567ffffffffffffffff8111156110705761106f610ca6565b5b61107c85828601610fe0565b9150509250929050565b61108f81610d6c565b82525050565b60006020820190506110aa6000830184611086565b92915050565b600080604083850312156110c7576110c6610ca1565b5b60006110d585828601610d8d565b92505060206110e685828601610d8d565b9150509250929050565b60006020828403121561110657611105610ca1565b5b600061111484828501610d8d565b91505092915050565b600081519050919050565b600082825260208201905092915050565b60005b8381101561115757808201518184015260208101905061113c565b60008484015250505050565b600061116e8261111d565b6111788185611128565b9350611188818560208601611139565b61119181610dec565b840191505092915050565b600081519050919050565b600082825260208201905092915050565b6000819050602082019050919050565b600082825260208201905092915050565b60006111e48261111d565b6111ee81856111c8565b93506111fe818560208601611139565b61120781610dec565b840191505092915050565b600061121e83836111d9565b905092915050565b6000602082019050919050565b600061123e8261119c565b61124881856111a7565b93508360208202850161125a856111b8565b8060005b8581101561129657848403895281516112778582611212565b945061128283611226565b925060208a0199505060018101905061125e565b50829750879550505050505092915050565b600081519050919050565b600082825260208201905092915050565b6000819050602082019050919050565b6112dd81610d6c565b82525050565b60006112ef83836112d4565b60208301905092915050565b6000602082019050919050565b6000611313826112a8565b61131d81856112b3565b9350611328836112c4565b8060005b8381101561135957815161134088826112e3565b975061134b836112fb565b92505060018101905061132c565b5085935050505092915050565b600060608201905081810360008301526113808186611163565b905081810360208301526113948185611233565b905081810360408301526113a88184611308565b9050949350505050565b7f4f6e6c792061646d696e2063616e20706572666f726d2074686973206163746960008201527f6f6e2e0000000000000000000000000000000000000000000000000000000000602082015250565b600061140e602383611128565b9150611419826113b2565b604082019050919050565b6000602082019050818103600083015261143d81611401565b9050919050565b7f4174206c656173742074776f206f7074696f6e732072657175697265642e0000600082015250565b600061147a601e83611128565b915061148582611444565b602082019050919050565b600060208201905081810360008301526114a98161146d565b9050919050565b7f4e487b7100000000000000000000000000000000000000000000000000000000600052602260045260246000fd5b600060028204905060018216806114f757607f821691505b60208210810361150a576115096114b0565b5b50919050565b60008190508160005260206000209050919050565b60006020601f8301049050919050565b600082821b905092915050565b6000600883026115727fffffffffffffffffffffffffffffffffffffffffffffffffffffffffffffffff82611535565b61157c8683611535565b95508019841693508086168417925050509392505050565b6000819050919050565b60006115b96115b46115af84610d6c565b611594565b610d6c565b9050919050565b6000819050919050565b6115d38361159e565b6115e76115df826115c0565b848454611542565b825550505050565b600090565b6115fc6115ef565b6116078184846115ca565b505050565b5b8181101561162b576116206000826115f4565b60018101905061160d565b5050565b601f8211156116705761164181611510565b61164a84611525565b81016020851015611659578190505b61166d61166585611525565b83018261160c565b50505b505050565b600082821c905092915050565b600061169360001984600802611675565b1980831691505092915050565b60006116ac8383611682565b9150826002028217905092915050565b6116c58261111d565b67ffffffffffffffff8111156116de576116dd610dfd565b5b6116e882546114df565b6116f382828561162f565b600060209050601f8311600181146117265760008415611714578287015190505b61171e85826116a0565b865550611786565b601f19841661173486611510565b60005b8281101561175c57848901518255600182019150602085019450602081019050611737565b868310156117795784890151611775601f891682611682565b8355505b6001600288020188555050505b505050505050565b7f4e487b7100000000000000000000000000000000000000000000000000000000600052601160045260246000fd5b60006117c882610d6c565b91506117d383610d6c565b92508282039050818111156117eb576117ea61178e565b5b92915050565b60006040820190506118066000830185611086565b81810360208301526118188184611163565b90509392505050565b7f496e76616c696420616464726573730000000000000000000000000000000000600082015250565b6000611857600f83611128565b915061186282611821565b602082019050919050565b600060208201905081810360008301526118868161184a565b9050919050565b61189681610ccb565b82525050565b60006020820190506118b1600083018461188d565b92915050565b7f50726f706f73616c20646f6573206e6f742065786973742e0000000000000000600082015250565b60006118ed601883611128565b91506118f8826118b7565b602082019050919050565b6000602082019050818103600083015261191c816118e0565b9050919050565b7f4e487b7100000000000000000000000000000000000000000000000000000000600052603260045260246000fd5b7f496e76616c69642070726f706f73616c2e000000000000000000000000000000600082015250565b6000611988601183611128565b915061199382611952565b602082019050919050565b600060208201905081810360008301526119b78161197b565b9050919050565b7f416c726561647920766f746564206f6e20746869732070726f706f73616c2e00600082015250565b60006119f4601f83611128565b91506119ff826119be565b602082019050919050565b60006020820190508181036000830152611a23816119e7565b9050919050565b7f496e76616c6964206f7074696f6e2e0000000000000000000000000000000000600082015250565b6000611a60600f83611128565b9150611a6b82611a2a565b602082019050919050565b60006020820190508181036000830152611a8f81611a53565b9050919050565b6000611aa182610d6c565b91507fffffffffffffffffffffffffffffffffffffffffffffffffffffffffffffffff8203611ad357611ad261178e565b5b600182019050919050565b6000606082019050611af36000830186611086565b611b006020830185611086565b611b0d604083018461188d565b94935050505056fea264697066735822122012bfdb2eba48e4adc6c5278253268aa396e3c656ae752a737914f850d23d1a8664736f6c63430008120033",
  "linkReferences": {},
  "deployedLinkReferences": {}
}